:100000000C9434000C9451000C9451000C94510049
:100010000C9451000C9451000C9451000C9451001C
:100020000C9451000C9451000C9451000C9451000C
:100030000C9451000C9451000C9451000C945100FC
:100040000C9451000C9451000C9451000C945100EC
:100050000C9451000C9451000C9451000C945100DC
:100060000C9451000C94510011241FBECFEFD8E026
:10007000DEBFCDBF11E0A0E0B1E0ECE0F1E002C0F6
:1000800005900D92AE30B107D9F721E0AEE0B1E0B6
:1000900001C01D92A431B207E1F70E9478000C94D0
:1000A00084000C940000CF93C82F8A3019F48DE09F
:1000B0000E9453008091C00085FFFCCFC093C60012
:1000C00090E080E0CF910895E1ECF0E080818861DC
:1000D0008083E2ECF0E080818660808387E6809315
:1000E000C40080E091E09093110180931001089585
:1000F00080E384B981E58CBD0E9464008AEA8EBDEC
:0C0100000DB407FEFDCFFBCFF894FFCF3D
:0E010C00000000020000000053000000000090
:00000001FF
